{
    "contractName": "BlackJack",
    "abi": [
        {
            "inputs": [],
            "stateMutability": "payable",
            "type": "constructor"
        },
        {
            "anonymous": false,
            "inputs": [
                {
                    "indexed": false,
                    "internalType": "uint256",
                    "name": "amount",
                    "type": "uint256"
                },
                {
                    "indexed": false,
                    "internalType": "uint256",
                    "name": "when",
                    "type": "uint256"
                }
            ],
            "name": "Withdrawal",
            "type": "event"
        },
        {
            "stateMutability": "payable",
            "type": "fallback"
        },
        {
            "inputs": [
                {
                    "internalType": "address",
                    "name": "",
                    "type": "address"
                }
            ],
            "name": "balances",
            "outputs": [
                {
                    "internalType": "uint256",
                    "name": "",
                    "type": "uint256"
                }
            ],
            "stateMutability": "view",
            "type": "function"
        },
        {
            "inputs": [],
            "name": "deposit",
            "outputs": [],
            "stateMutability": "payable",
            "type": "function"
        },
        {
            "inputs": [
                {
                    "internalType": "address",
                    "name": "",
                    "type": "address"
                }
            ],
            "name": "games",
            "outputs": [
                {
                    "internalType": "uint256",
                    "name": "id",
                    "type": "uint256"
                },
                {
                    "internalType": "uint256",
                    "name": "createdAt",
                    "type": "uint256"
                },
                {
                    "internalType": "uint256",
                    "name": "updatedAt",
                    "type": "uint256"
                },
                {
                    "internalType": "bool",
                    "name": "playerWon",
                    "type": "bool"
                }
            ],
            "stateMutability": "view",
            "type": "function"
        },
        {
            "inputs": [],
            "name": "getBalance",
            "outputs": [
                {
                    "internalType": "uint256",
                    "name": "",
                    "type": "uint256"
                }
            ],
            "stateMutability": "view",
            "type": "function"
        },
        {
            "inputs": [
                {
                    "internalType": "uint256[]",
                    "name": "_hand",
                    "type": "uint256[]"
                }
            ],
            "name": "getHandValue",
            "outputs": [
                {
                    "internalType": "uint256",
                    "name": "",
                    "type": "uint256"
                }
            ],
            "stateMutability": "pure",
            "type": "function"
        },
        {
            "inputs": [],
            "name": "getPlayerBalance",
            "outputs": [
                {
                    "internalType": "uint256",
                    "name": "",
                    "type": "uint256"
                }
            ],
            "stateMutability": "view",
            "type": "function"
        },
        {
            "inputs": [],
            "name": "getPlayerGameInfo",
            "outputs": [
                {
                    "components": [
                        {
                            "internalType": "uint256",
                            "name": "id",
                            "type": "uint256"
                        },
                        {
                            "internalType": "uint256[]",
                            "name": "playerHand",
                            "type": "uint256[]"
                        },
                        {
                            "internalType": "uint256[]",
                            "name": "dealerHand",
                            "type": "uint256[]"
                        },
                        {
                            "internalType": "uint256",
                            "name": "createdAt",
                            "type": "uint256"
                        },
                        {
                            "internalType": "uint256",
                            "name": "updatedAt",
                            "type": "uint256"
                        },
                        {
                            "internalType": "bool",
                            "name": "playerWon",
                            "type": "bool"
                        },
                        {
                            "internalType": "uint256[]",
                            "name": "bets",
                            "type": "uint256[]"
                        }
                    ],
                    "internalType": "struct BlackJack.Game",
                    "name": "",
                    "type": "tuple"
                }
            ],
            "stateMutability": "view",
            "type": "function"
        },
        {
            "inputs": [],
            "name": "hit",
            "outputs": [
                {
                    "internalType": "uint256",
                    "name": "",
                    "type": "uint256"
                }
            ],
            "stateMutability": "nonpayable",
            "type": "function"
        },
        {
            "inputs": [],
            "name": "owner",
            "outputs": [
                {
                    "internalType": "address payable",
                    "name": "",
                    "type": "address"
                }
            ],
            "stateMutability": "view",
            "type": "function"
        },
        {
            "inputs": [],
            "name": "stand",
            "outputs": [
                {
                    "internalType": "uint256[]",
                    "name": "",
                    "type": "uint256[]"
                },
                {
                    "internalType": "uint256[]",
                    "name": "",
                    "type": "uint256[]"
                },
                {
                    "internalType": "bool",
                    "name": "",
                    "type": "bool"
                }
            ],
            "stateMutability": "nonpayable",
            "type": "function"
        },
        {
            "inputs": [
                {
                    "internalType": "uint256",
                    "name": "_initialBet",
                    "type": "uint256"
                }
            ],
            "name": "startGame",
            "outputs": [
                {
                    "internalType": "uint256",
                    "name": "",
                    "type": "uint256"
                },
                {
                    "internalType": "uint256",
                    "name": "",
                    "type": "uint256"
                }
            ],
            "stateMutability": "nonpayable",
            "type": "function"
        },
        {
            "inputs": [
                {
                    "internalType": "uint256",
                    "name": "_amount",
                    "type": "uint256"
                }
            ],
            "name": "withdraw",
            "outputs": [],
            "stateMutability": "nonpayable",
            "type": "function"
        },
        {
            "stateMutability": "payable",
            "type": "receive"
        }
    ],
    "bytecode": "6080604052600080546001600160a01b03191633179055611544806100256000396000f3fe6080604052600436106100a55760003560e01c8063646d2cd811610061578063646d2cd81461017457806379131a19146101965780638da5cb5b146101fd578063c2897b1014610235578063d0e30db014610259578063e5ed1d591461026157005b80630b01517c146100ae57806312065fe0146100df57806327e235e3146100f25780632ae3594a1461011f5780632e1a7d4d1461013457806351380b3f1461015457005b366100ac57005b005b3480156100ba57600080fd5b50336000908152600160205260409020545b6040519081526020015b60405180910390f35b3480156100eb57600080fd5b50476100cc565b3480156100fe57600080fd5b506100cc61010d36600461124e565b60016020526000908152604090205481565b34801561012b57600080fd5b506100cc610296565b34801561014057600080fd5b506100ac61014f36600461127e565b6103ee565b34801561016057600080fd5b506100cc61016f3660046112ad565b610586565b34801561018057600080fd5b506101896105fe565b6040516100d691906113a6565b3480156101a257600080fd5b506101db6101b136600461124e565b60026020526000908152604090208054600382015460048301546005909301549192909160ff1684565b60408051948552602085019390935291830152151560608201526080016100d6565b34801561020957600080fd5b5060005461021d906001600160a01b031681565b6040516001600160a01b0390911681526020016100d6565b34801561024157600080fd5b5061024a61079a565b6040516100d693929190611432565b6100ac610d3a565b34801561026d57600080fd5b5061028161027c36600461127e565b610db0565b604080519283526020830191909152016100d6565b336000818152600260205260408120600301549091906102fd5760405162461bcd60e51b815260206004820152601e60248201527f596f75206e65656420746f20737461727420612067616d65206669727374000060448201526064015b60405180910390fd5b6001600160a01b03811660009081526002602052604090206003015442906103289062015180611480565b116103685760405162461bcd60e51b815260206004820152601060248201526f11d85b59481a185cc8195e1c1a5c995960821b60448201526064016102f4565b6001600160a01b03811660009081526002602052604081206001019061038f906034611180565b81546001818101845560009384526020808520909201929092556001600160a01b03841683526002905260409091208101805490916103cd91611493565b815481106103dd576103dd6114a6565b906000526020600020015491505090565b6000546001600160a01b031633146104485760405162461bcd60e51b815260206004820152601760248201527f4f6e6c79206f776e65722063616e20776974686472617700000000000000000060448201526064016102f4565b804710156104a75760405162461bcd60e51b815260206004820152602660248201527f4e6f7420656e6f7567682066756e647320696e2074686520736d61727420636f6044820152651b9d1c9858dd60d21b60648201526084016102f4565b600080546040516001600160a01b039091169083908381818185875af1925050503d80600081146104f4576040519150601f19603f3d011682016040523d82523d6000602084013e6104f9565b606091505b505090508061054a5760405162461bcd60e51b815260206004820152601860248201527f4661696c656420746f207769746864726177204574686572000000000000000060448201526064016102f4565b604080518381524260208201527fbf2ed60bd5b5965d685680c01195c9514e4382e28e3a5a2d2d5244bf59411b93910160405180910390a15050565b600080805b83518110156105f7576000600d8583815181106105aa576105aa6114a6565b60200260200101516105bc91906114bc565b9050806000036105ca5750600d5b600a8111156105d75750600a5b6105e18184611480565b92505080806105ef906114de565b91505061058b565b5092915050565b6106406040518060e001604052806000815260200160608152602001606081526020016000815260200160008152602001600015158152602001606081525090565b33600090815260026020908152604091829020825160e08101845281548152600182018054855181860281018601909652808652919492938581019392908301828280156106ad57602002820191906000526020600020905b815481526020019060010190808311610699575b505050505081526020016002820180548060200260200160405190810160405280929190818152602001828054801561070557602002820191906000526020600020905b8154815260200190600101908083116106f1575b5050505050815260200160038201548152602001600482015481526020016005820160009054906101000a900460ff161515151581526020016006820180548060200260200160405190810160405280929190818152602001828054801561078c57602002820191906000526020600020905b815481526020019060010190808311610778575b505050505081525050905090565b336000818152600260205260408120600301546060928392916107ff5760405162461bcd60e51b815260206004820152601e60248201527f596f75206e65656420746f20737461727420612067616d65206669727374000060448201526064016102f4565b6001600160a01b038116600090815260026020526040902060030154429061082a9062015180611480565b1161086a5760405162461bcd60e51b815260206004820152601060248201526f11d85b59481a185cc8195e1c1a5c995960821b60448201526064016102f4565b60116108eb60026000846001600160a01b03166001600160a01b031681526020019081526020016000206002018054806020026020016040519081016040528092919081815260200182805480156108e157602002820191906000526020600020905b8154815260200190600101908083116108cd575b5050505050610586565b1015610933576001600160a01b038116600090815260026020819052604082200190610918906034611180565b8154600181018355600092835260209092209091015561086a565b6001600160a01b0381166000908152600260209081526040808320600101805482518185028101850190935280835261099d938301828280156108e157602002820191906000526020600020908154815260200190600101908083116108cd575050505050610586565b6001600160a01b038316600090815260026020818152604080842090920180548351818402810184019094528084529495509293610a0d93918301828280156108e157602002820191906000526020600020908154815260200190600101908083116108cd575050505050610586565b90505b6011811015610ac5576001600160a01b038316600090815260026020819052604082200190610a40906034611180565b815460018101835560009283526020808420909101919091556001600160a01b03851682526002808252604092839020018054835181840281018401909452808452610abe93928301828280156108e157602002820191906000526020600020908154815260200190600101908083116108cd575050505050610586565b9050610a10565b6015821115610af6576001600160a01b0383166000908152600260205260409020600501805460ff19169055610b81565b6015811115610b2a576001600160a01b0383166000908152600260205260409020600501805460ff19166001179055610b81565b80821115610b5d576001600160a01b0383166000908152600260205260409020600501805460ff19166001179055610b81565b6001600160a01b0383166000908152600260205260409020600501805460ff191690555b6001600160a01b03831660009081526002602052604090206005015460ff1615610c5e576000805b6001600160a01b038516600090815260026020526040902060060154811015610c23576001600160a01b0385166000908152600260205260409020600601805482908110610bf957610bf96114a6565b906000526020600020015482610c0f9190611480565b915080610c1b816114de565b915050610ba9565b50610c2f8160026114f7565b6001600160a01b03851660009081526001602052604081208054909190610c57908490611480565b9091555050505b6001600160a01b03831660009081526002602081815260409283902060058101546001820180548651818602810186019097528087529095929094019360ff90911692859190830182828015610cd357602002820191906000526020600020905b815481526020019060010190808311610cbf575b5050505050925081805480602002602001604051908101604052809291908181526020018280548015610d2557602002820191906000526020600020905b815481526020019060010190808311610d11575b50505050509150955095509550505050909192565b60003411610d8a5760405162461bcd60e51b815260206004820152601b60248201527f596f75206e65656420746f2073656e6420736f6d65204574686572000000000060448201526064016102f4565b3360009081526001602052604081208054349290610da9908490611480565b9091555050565b336000818152600160205260408120549091829167016345785d8a00001115610e2f5760405162461bcd60e51b815260206004820152602b60248201527f596f75206e65656420746f2068617665206174206c6561737420302e3120657460448201526a68657220746f20706c617960a81b60648201526084016102f4565b67016345785d8a0000841015610e925760405162461bcd60e51b815260206004820152602260248201527f596f75206e65656420746f20626574206174206c6561737420302e312065746860448201526132b960f11b60648201526084016102f4565b6001600160a01b03811660009081526002602052604090206003015415801590610ee457506001600160a01b0381166000908152600260205260409020600301544290610ee29062015180611480565b105b15610f4d576001600160a01b038116600090815260026020526040812081815590610f1260018301826111cd565b610f206002830160006111cd565b6000600383018190556004830181905560058301805460ff19169055610f4a9060068401906111cd565b50505b6001600160a01b03811660009081526001602052604081208054869290610f75908490611493565b90915550506040805160e081018252428082528251600080825260208083018652808501928352855182815280820187528587015260608501849052608085019390935260a084018190528451818152808401865260c08501526001600160a01b038616815260028352939093208251815592518051929392610ffe92600185019201906111ee565b506040820151805161101a9160028401916020909101906111ee565b50606082015160038201556080820151600482015560a082015160058201805460ff191691151591909117905560c082015180516110629160068401916020909101906111ee565b5050506001600160a01b0381166000818152600260209081526040822060068101805460018181018355918552928420909201889055928252909101906110aa906034611180565b815460018101835560009283526020808420909101919091556001600160a01b03831682526002908190526040822001906110e6906034611180565b81546001818101845560009384526020808520909201929092556001600160a01b03841683526002905260408220018054909190611126576111266114a6565b906000526020600020015460026000836001600160a01b03166001600160a01b0316815260200190815260200160002060020160008154811061116b5761116b6114a6565b90600052602060002001549250925050915091565b600082824260405160200161119791815260200190565b6040516020818303038152906040528051906020012060001c6111ba91906114bc565b6111c49190611480565b90505b92915050565b50805460008255906000526020600020908101906111eb9190611239565b50565b828054828255906000526020600020908101928215611229579160200282015b8281111561122957825182559160200191906001019061120e565b50611235929150611239565b5090565b5b80821115611235576000815560010161123a565b60006020828403121561126057600080fd5b81356001600160a01b038116811461127757600080fd5b9392505050565b60006020828403121561129057600080fd5b5035919050565b634e487b7160e01b600052604160045260246000fd5b600060208083850312156112c057600080fd5b823567ffffffffffffffff808211156112d857600080fd5b818501915085601f8301126112ec57600080fd5b8135818111156112fe576112fe611297565b8060051b604051601f19603f8301168101818110858211171561132357611323611297565b60405291825284820192508381018501918883111561134157600080fd5b938501935b8285101561135f57843584529385019392850192611346565b98975050505050505050565b600081518084526020808501945080840160005b8381101561139b5781518752958201959082019060010161137f565b509495945050505050565b60208152815160208201526000602083015160e060408401526113cd61010084018261136b565b90506040840151601f19808584030160608601526113eb838361136b565b925060608601516080860152608086015160a086015260a0860151151560c086015260c08601519150808584030160e086015250611429828261136b565b95945050505050565b606081526000611445606083018661136b565b8281036020840152611457818661136b565b9150508215156040830152949350505050565b634e487b7160e01b600052601160045260246000fd5b808201808211156111c7576111c761146a565b818103818111156111c7576111c761146a565b634e487b7160e01b600052603260045260246000fd5b6000826114d957634e487b7160e01b600052601260045260246000fd5b500690565b6000600182016114f0576114f061146a565b5060010190565b80820281158282048414176111c7576111c761146a56fea2646970667358221220c2460afb9714bcb51ef3013b76f21c30d72c11d5285eb61ff185eed2e9747e0264736f6c63430008110033",
    "sourcePath": "/Users/ethan.sayaghethan.sayagh/Desktop/Dev/Fun/BC/blackJack/contracts/BlackJack.sol",
    "compiler": {
        "name": "solc",
        "version": "0.8.17+commit.8df45f5f"
    },
    "functionHashes": {
        "balances(address)": "27e235e3",
        "deposit()": "d0e30db0",
        "games(address)": "79131a19",
        "getBalance()": "12065fe0",
        "getHandValue(uint256[])": "51380b3f",
        "getPlayerBalance()": "0b01517c",
        "getPlayerGameInfo()": "646d2cd8",
        "hit()": "2ae3594a",
        "owner()": "8da5cb5b",
        "stand()": "c2897b10",
        "startGame(uint256)": "e5ed1d59",
        "withdraw(uint256)": "2e1a7d4d"
    },
    "gasEstimates": {
        "creation": {
            "codeDepositCost": "1088800",
            "executionCost": "25345",
            "totalCost": "1114145"
        },
        "external": {
            "": "206",
            "balances(address)": "2518",
            "deposit()": "24600",
            "games(address)": "8920",
            "getBalance()": "206",
            "getHandValue(uint256[])": "infinite",
            "getPlayerBalance()": "2339",
            "getPlayerGameInfo()": "infinite",
            "hit()": "infinite",
            "owner()": "2381",
            "stand()": "infinite",
            "startGame(uint256)": "infinite",
            "withdraw(uint256)": "infinite"
        },
        "internal": {
            "randomNumber(uint256,uint256)": "infinite"
        }
    }
}